S0140000786E63702D6C65645F3736386B2E73333756
S31500004000C04B002045210200759F0000799F0000EB
S31500004010A70A0A010042000004180FAC1067AF009F
S31500004020000000000000000000000000000000008A
S3150000403000000000B40903000000000000000000BA
S315000040400000000000000000FFFFFFFFFFFFFFFF72
S31500004050FFFFFFFF00600B000000000000000000F3
S31500004060FFFFFFFFFFFFFFFF8000000000000000D2
S31500004070000000000000000000000000000000003A
S315000040800000000000000000376E0020376E0020A0
S31500004090C04B0020283C030020090300604200209A
S311000040A02242002000E00B00000000009F
S31500004200C04B002045210200759F0000799F0000E9
S31500004210C9A800007D9F0000859F00004121020083
S3150000422041210200412102004121020041210200F8
S31500004230899F000041210200412102004121020024
S31500004240C8A00000C8A00000C8A00000C8A00000C8
S31500004250C8A0000099590000C9660000C8A0000067
S31500004260C8A00000C8A00000A9570000CDB70000F4
S31500004270C8A00000C8A00000C8A00000C8A0000098
S31500004280C8A00000C8A00000C8A00000412102008C
S31500004290C8A0000011510000C8A00000C8A000007E
S315000042A0C8A0000011520000E9510000C8A000009B
S315000042B0C8A00000C8A00000C8A00000E1FF0200DE
S315000042C06DFF020069FF02000DF70200DDFF02002C
S315000042D071FF020091FF020075FF020071E7020004
S315000042E025000300C8A00000C8A0000009A4000023
S315000042F0C8A00000C8A00000C8A00000412102001C
S31500004300C8A00000C8A00000C8A00000C8A0000007
S31500004310C8A00000C8A00000C8A00000C8A00000F7
S31500004320C8A00000C8A00000C8A00000C8A00000E7
S30900004330C8A000001B
S31500004334F8B500BFF8BC08BC9E467047F8B500BF88
S31500004344F8BC08BC9E46704710B5054C237833B9B3
S31500004354044B13B1044800E000BF0123237010BDD1
S315000043648C520020000000005435030008B5034BAE
S315000043741BB10349034800E000BF08BD000000006C
S315000043849052002054350300154B002B08BF134BE5
S315000043949D46A3F5803A00218B460F461348144ADE
S315000043A4121A2CF097FA0F4B002B00D098470E4B9D
S315000043B4002B00D098470020002104000D000D4872
S315000043C4002802D00C4800E000BF2CF045FA20007B
S315000043D4290022F0BBFB2CF02BFA00BF00000800DA
S315000043E4C04B002000000000000000008C5200209A
S315000043F4376E00200000000000000000002307B50F
S31500004404CDE90033012369464FF0FF308DF80230C1
S3150000441426F060FC003018BF012003B05DF804FBF1
S3150000442400207047002814BF022000207047012096
S31500004434704701207047012814BF022000207047EE
S31500004444012070472DE9F84F80460D4614469946DB
S31500004454164E06F1010A0DB9BDE8F88F102D4FF07E
S315000044640D02494650462F4628BF102705F02CFE5C
S315000044740123337000230D48F473B37314F03EFA2A
S31500004484424601340A495FFA87FBE4B212F8013B5B
S3150000449411F8010F434002F8013CA2EB0803DBB21A
S315000044A45B45F3D3ED1BADB29046D4E7AC52002086
S315000044B4AB5200202DE9F04F4FF00209364D85B07E
S315000044C403930F9B174601900D220E460146681C66
S315000044D4BDF83880029305F0F7FD49234C46AA46F9
S315000044E42B7028464FEA1823AB7385F80F8014F017
S315000044F405FA2B7883EA17232B706B787B406B7055
S315000045044FF0000B21E0C4F1100CA7EB0B031FFACC
S315000045148CFC9BB2634528BF63463046A11B00EB67
S31500004524010C5FFA8CF2A0EB060C1FFA8CFC9C457E
S315000045341BD31C44E4B29B44102C1E441FFA8BFB71
S3150000454403D1284614F0DAF90024BB45DBD314B1B1
S31500004554504614F0D3F9B9F1010F4FF00004039E4D
S3150000456447460BD04FF00109CAE710F801CB1AF8F9
S3150000457402E08CEA0E0C0AF802C0D0E70298042284
S31500004584054905F0A1FD22460421019B029805B0C8
S31500004594BDE8F04FFFF756BFAC520020F7B5099FB0
S315000045A4BDF820400646CDE900471D46FFF782FFC9
S315000045B42CB13346012221462846FFF743FF00204B
S315000045C403B0F0BD2DE9F7431E46054688469146DD
S315000045D4BDF828700D4C0346394630460122FFF7D4
S315000045E431FF33464A4641462846CDE90074FFF773
S315000045F461FF042221460B9805F0C9FD002814BF6B
S315000046047E20002003B0BDE8F08300BFA85200203E
S315000046142DE9F3410C4615461E468046084F991867
S3150000462421443846042205F04FFDCDE9006763199D
S315000046342A4621464046FFF7C5FF02B0BDE8F08191
S31500004644BC520020002070470120704701207047AB
S3150000465400207047012070470020704700207047F3
S31500004664012070470020704701207047704770474B
S31500004674002814BF02200020704700207047000065
S31500004684032310B50F4C1022C4E904330E4B0F4913
S31500004694E3610023A16121660D49E01DC4E91912F5
S315000046A40C49A3626362E3622367E366636722627B
S315000046B42CF018F9084920462CF014F92023A3718C
S315000046C410BD00BF00680020D0520020200903005E
S315000046D4C0520020290903002D0903002DE9F84FD3
S315000046E41F4B16461A7881468A4698460AB9FFF73A
S315000046F4C7FF182707FB09873D6FD7F86CB05D45E0
S315000047042BD9BC6E796E641BB44228BF3446294447
S31500004714504622462CF0D3F8BB6E2544AB4208BF64
S315000047240025A244361BABEB050B5E4528BF5E464F
S3150000473456B1182303FB0983596E32462944504661
S315000047442CF0BDF83444354424B1182303FB0988FE
S31500004754C8F870502046BDE8F88F0024E3E700BF90
S3150000476400680020F8B504460E46174602F02DFCF4
S315000047743A46054631462046FFF7B0FF044628462A
S3150000478402F029FC2046F8BD2DE9F843124D1E46D9
S315000047942B788146884617460BB9FFF771FF02F05E
S315000047A414FC00244FF0180C69690CFB04535A6E70
S315000047B42AB10134A142F8DC4FF0FF3407E0A142EC
S315000047C4FADDC3E918989F661A67DA665E6702F02F
S315000047D402FC2046BDE8F88300680020FFF750BFBE
S315000047E470B54FF060441A4B00261A68194D42F012
S315000047F401021A60DA680C2042F08072DA60164B05
S31500004804C4F8B03F0223C4F8006EC4F8806EC5F83D
S31500004814F03002F0EBF8114B00F5D52000F2FC4025
S31500004824B0FBF3F00E4A0F4B01382861C4F8406E12
S315000048341A600D4BC4F8803E4FF48073C5F80433F8
S31500004844D4F8003E43F48073C4F8003E70BD00BF44
S31500004854F0ED00E0000004E055CEACC5F8590D00BB
S31500004864FF030040001000E00D00010010B5012414
S315000048740E4B00201C6002F045FC23460422032153
S31500004884002002F087FC20461BF028FDFFF7A8FF56
S315000048941BF02AFDFFF7A2FF2346402204490548E0
S315000048A4FFF772FF044B1860C00F10BD44D40340D9
S315000048B4E052002034090300584D0020024B1868CA
S315000048C4003018BF01207047F0ED00E0D123054AFF
S315000048D4037013784170090A8170591CC3701170F2
S315000048E404207047205300202DE9F74F354E074624
S315000048F433681C5C032C63D9DFF8CC801DF017FDEC
S315000049044FF6FF7A0025C1460534E4B20190D8F883
S3150000491400204AB1AC4207D91DF009FD019BC01A1B
S3150000492480B2B0F5FA7F05D9601B18BF012003B029
S31500004934BDE8F08F002D3DD0012D1DD14FF0020BA7
S315000049443268D55D4FF06042D2F8801ECB0711D590
S315000049541146D9F80C0040F08070C9F80C00D1F863
S31500004964000E40F48070C1F8000E086A0028F0D0EA
S3150000497482F820505D46CAE7E21E05F1010B954216
S315000049845FFA8BFB02D15FFA8AF5DBE7A21E95423A
S3150000499402D1CAF30725D5E7621E95420ED0A91E99
S315000049A4C9B238460BF0B0FD5146054605F076FA15
S315000049B48246C7E75B254FF0010BC3E75D25C1E7D8
S315000049C40120B4E7D44D0020F0ED00E010B50B4B08
S315000049D490B0402269461868FFF7C4FE58B1C1B2C8
S315000049E468460BF01BFD04460146122021F00AFC22
S315000049F420460BF0B5FB10B010BD00BF584D00208B
S31500004A0470B5164685180AB9304470BD01F00F0317
S31500004A140A2B34BF30243724013A2344090905F804
S31500004A24013DD2B2EFE70000F0B5F9B100281CDA77
S31500004A342D23B0F1004F137000D04042012115E040
S31500004A44801B8642ECB205F10105F9D904B927B1F8
S31500004A5401274D1C30345454E9B20133092B09D1D2
S31500004A64303050540131C8B2F0BD002100231F4636
S31500004A74DFF808C05CF823600025E2E74409030078
S31500004A842DE9F04F4FF0000B95B002AC81468A46F3
S31500004A9417461D465E46A0463B7863B902ABE41A48
S31500004AA4E4B2224619465046C847002840F093808F
S31500004AB43444E0B290E0252B13D0BBF1000F14D19F
S31500004AC42370013412AB9C426DD3A4EB0804E4B208
S31500004AD4224641465046C84700287CD12644F6B2B1
S31500004AE460E0BBF1000F00D101373B78632B00F087
S31500004AF492801BD8392B09D8302B80F09E80002B4E
S31500004B04CCD0252B51D04FF0000BDBE7582B00F00F
S31500004B148B80622BF7D14FF0000B2B6801936B68E7
S31500004B240093009B9B4543D10835ECE7702B1ED0C0
S31500004B3417D8642B01D06C2BE5D16C2B05F1040B33
S31500004B4428686CD17B78752B14BF0121002101D014
S31500004B54642B00D101372246FFF766FF04445D4605
S31500004B64D1E7752BE9D0782B5ED0732BCBD1A4EB90
S31500004B740804E4B2224602A9504605F1040B2D6846
S31500004B84C84740BB2644F6B2C4B22B5D0130002BA5
S31500004B94FAD1224629465046C847E0B95D468346BF
S31500004BA42644F6B24446013776E723700134AAE771
S31500004BB4019B204613F80B100222FFF721FF12ABCC
S31500004BC4984204460ED3A0EB0804E4B222464146BA
S31500004BD45046C84718B1002015B0BDE8F08F2644EA
S31500004BE44446F6B2009B013B5B4582BF20232370FB
S31500004BF4013412AB9C420BD3A4EB0804E4B2224664
S31500004C0441465046C8470028E5D126444446F6B2F4
S31500004C140BF1010B85E72B6804352370C6E7752B6A
S31500004C240CBF0021012196E7204602222978FFF7CE
S31500004C34E7FE05F1040B044691E77A7802F0DF02F9
S31500004C44582A19D1322B07F1010B09D10422204627
S31500004C5429882F1DFFF7D4FE3D4604465F4652E7DA
S31500004C64342B09D12F1D2D680422290C2046FFF769
S31500004C74C7FE0422A9B2EDE74FF0010B22E70000BC
S31500004C842DE9F04F9B46584B85B01B78064689465E
S31500004C941546109F9DF844A0DDF85080002B00F0C7
S31500004CA49280072A00F291800E9B002B00F08D80E3
S31500004CB40F9B002B00F08980129BB3F5006F00F365
S31500004CC48480012801D1002F7FD0484B03EB0513C4
S31500004CD41B7B002B7BD0464C1022002168462BF010
S31500004CE4F9FD04EB45141022B9F1000F5CD14946D5
S31500004CF420462BF0EFFDA37843F01003A370E3786E
S31500004D0443F03003E370BAF1000F03D1DBB243F092
S31500004D140303E37036496A01129B885A013B63F325
S31500004D240E100E9B01EB020C8852CCF808300F9B38
S31500004D349DF84C10CCF804309CF80330012E61F336
S31500004D448303CDF800B08CF8033042D113230CF161
S31500004D54100ECCF80C309CE80F008EE80F006FF0B4
S31500004D640301DCF81C20B9F1010F61F39F02CCF8B2
S31500004D741C20CCF8147004D10F9BCCF80470CCF82A
S31500004D841830002719492A018B1841F80280159A10
S31500004D9428465A609F605E732246694602F08AFA84
S31500004DA4384605B0BDE8F08F002120462BF092FD71
S31500004DB41023A3700323E370BAF1000FAAD1DBB268
S31500004DC443F03003A5E70B48EBE70B48E9E70B484C
S31500004DD4E7E7B8F1000FD4D19CF8023068F3041366
S31500004DE48CF80230CDE700BFA454002024530020E1
S31500004DF4A4530020028000F0018000F0078000F038
S31500004E0438B5104B05461B78BBB1C0B102F0DDF8CE
S31500004E1400230D4901EB0312147B3CB92B600123DB
S31500004E241460137302F0D7F8204638BD0133082BFB
S31500004E34F0D102F0D0F80548F7E70548F5E705484C
S31500004E44F3E700BFA454002024530020048000F09C
S31500004E54028000F0018000F038B502F0B6F80023B5
S31500004E6405460A4AD1180C7B5CB91033802BF9D15C
S31500004E7402F0D2F9064B28461C7002F0ACF8204624
S31500004E8438BD284602F0A7F80248F9E72453002063
S31500004E94A4540020058000F00D4B10B51B78044681
S31500004EA493B1072812D802F090F80A4B03EB0413C7
S31500004EB41A7B2AB100241C7302F08DF8204610BD1B
S31500004EC402F089F80448FAE70448F8E70448F6E7E4
S31500004ED4A454002024530020068000F0028000F031
S31500004EE4018000F0164B13B51868002301908DF865
S31500004EF4043002F06AF8134B1C7824B102F06BF804
S31500004F04114802B010BD01221A7002F064F80F4B6A
S31500004F141C731C7783F82C4083F83C4083F84C4080
S31500004F2483F85C4083F86C4083F87C4004230DEBE3
S31500004F3403008DF8073002F093F92046E1E700BF3D
S31500004F4468090300A4540020038000F024530020C1
S31500004F5410B588B00E9C009207940D9C02460694E8
S31500004F649DF8304005940B9C04949DF828400394C6
S31500004F740024CDE9013420460B462146FFF780FE86
S31500004F8408B010BD10B588B00E9C009207940D9C15
S31500004F94024606949DF8304005940B9C04949DF8B3
S31500004FA4284003940024CDE9013420460B46012110
S31500004FB4FFF766FE08B010BD08B50A4B1B785BB157
S31500004FC407280BD8084B03EB00131B7B43B10021C6
S31500004FD402F036F9002008BD0448FCE70448FAE765
S31500004FE40448F8E7A454002024530020028000F06B
S31500004FF4018000F0078000F008B50A4B1B785BB10E
S3150000500407280BD8084B03EB00131B7B43B1012184
S3150000501402F016F9002008BD0448FCE70448FAE744
S315000050240448F8E7A454002024530020028000F02A
S31500005034018000F0078000F008B50A4B1B7853B1D5
S3150000504407280AD8084B03EB00131B7B3BB102F07D
S3150000505481F9002008BD0548FCE70548FAE705483C
S31500005064F8E700BFA454002024530020028000F077
S31500005074018000F0078000F00D4B1B7893B10728E0
S3150000508412D889B10B4B03EB00131B7B73B10A4B8C
S31500005094DA6A012303FA00F010401ABF00200B70ED
S315000050A408707047054870470548704705487047BB
S315000050B4A45400202453002000000440028000F081
S315000050C4018000F0078000F00B4B10B51B780C46EE
S315000050D463B107280CD859B1084B03EB00131B7BAB
S315000050E443B102F049F92060002010BD0448FCE7F2
S315000050F40448FAE70448F8E7A4540020245300209F
S31500005104028000F0018000F0078000F02DE9F843EA
S31500005114174B1F6D5B6D1F4000D5FEE7012600256A
S31500005124144CDFF85480DFF85490374217D02368C4
S31500005134C8F800609BB1A16862680131A160284685
S315000051449847637B012B0AD148B909EB4513197BB0
S315000051541A7F60F3410160F3410219731A7701352E
S31500005164082D4FEA460604F11004DED1BDE8F883A3
S31500005174000004402453002050200440A45300207F
S3150000518470B504460125084E04B970BD94FAA4F01E
S31500005194B0FA80F005FA00F324EA030456F8203046
S315000051A4002BF1D09847EFE7A85400204FF0007287
S315000051B4044BC3F880211A604FF08062C3F8802143
S315000051C41A60704700E100E038B504460D4601F068
S315000051D4FCFE034B43F82450BDE8384001F0FBBE07
S315000051E4A8540020084BD3F82404D3F820241040F4
S315000051F442F2204220F42A5020F02A004004400CB7
S315000052049850FFF7BDBF00BF00C00340084BD3F85A
S315000052142404D3F82024104042F2204220F4AA4069
S3150000522420F055000004000C9850FFF7A9BF00BFFA
S3150000523400C00340104A30B5136841611546ABB946
S315000052441060836011E0091B9C6841611A467CB1B9
S3150000525423465C698C42F6D9002CF4D052B1906096
S31500005264836013B15A69511A596130BD0022F0E7BF
S315000052742346F4E72860F3E7F854002010B500F05D
S3150000528451FA094B094A196831B11368C41A4B69B2
S31500005294A34203D31B1B4B61106003E0C01A002317
S315000052A410604B6110BD00BFF8540020EC54002080
S315000052B4074B10B51B6802205C69064B1B681C442F
S315000052C400F056FA2046BDE8104000F032BA00BF9E
S315000052D4F8540020EC54002070B59DF8145016467E
S315000052E405710025049A8560BDF818500446C580EA
S315000052F40260C0E903360D4629B961610BB1114656
S31500005304984796B1354601F060FE0646FFF7B6FFAC
S3150000531429462046FFF78EFF054B1B68A34201D1A1
S31500005324FFF7C6FF304601F056FE002070BD00BFF1
S31500005334F854002000210C4A13687BB183420AD139
S31500005344836879B18B6083681BB15A6941690A44E1
S315000053545A610020704719469B68EEE70028EFD093
S31500005364022070471360EEE7F854002070B501F090
S315000053742CFE104D06462C78BCB90F4B1C600F4B07
S315000053841C600F4B1C7000F093F9012000F0F0F93B
S3150000539400F022FA2346024640F2E73109482BF090
S315000053A4BDF8094B186001232B70304601F013FE3B
S315000053B4002070BDE8540020F8540020EC5400206E
S315000053C4F454002018FCFFFFF0540020F8B50546FD
S315000053D400B301F0FAFD104C0646FFF74FFF2268B2
S315000053E4AA420DD1022000F0CFF901272846FFF783
S315000053F4A1FF054630B1304601F0EDFD2846F8BD63
S315000054040027F3E7002FF6D02368002BF3D0FFF72D
S315000054144FFFF0E72225F1E7F8540020F0B50D46DA
S3150000542485B016461F46044680B1FFF7CFFFBDF888
S315000054342C30002202939DF828302946CDE90073CA
S3150000544420463346FFF748FF05B0F0BD2220FBE7B0
S3150000545438B50C46054698B191B100230B7001F09E
S31500005464B4FD0121074B1B680BB122781AB101F078
S31500005474B2FD002038BD9D420CBF21709B68F3E746
S315000054842220F7E7F8540020F0B51F46002387B022
S315000054940D4616468DF817300446A0B10DF11701D6
S315000054A4FFF7D6FF9DF817207AB9BDF834302946A0
S315000054B402939DF830302046CDE900733346FFF75A
S315000054C40BFF07B0F0BD2220FBE70320F9E700003D
S315000054D4F8B50C460646C8B1C1B101F076FD0546DD
S315000054E4FFF7CCFE73692360134B1B68B3420FD0DE
S315000054F423B9284601F06FFD03201CE05969226890
S315000055049B680A442260F1E700230FE0222012E0A0
S31500005514276800F007F9094E3368C01A8742F3D9A1
S3150000552400F000F93368C01A23681B1A2846236062
S3150000553401F051FD0020F8BDF8540020EC54002081
S3150000554400F0F0B838B50A4B04461B680D46834292
S315000055540CD300F041F94FF47A720023A4FB000146
S315000055642AF0DCFF01302860002038BD2120FCE74A
S31500005574F054002038B5044600F02EF94FF47A733F
S31500005584A4FB0345A8B1431E034212D100F024F93B
S31500005594B0FA80F3C3F11F03C3F12002A3F1200084
S315000055A405FA02F224FA03F3134325FA00F018432A
S315000055B438BD00F011F900230246294620462AF098
S315000055C4ADFFF5E7C2072DE9F84F044608D5354A7D
S315000055D413780133DBB21370FFF750FEFFF768FE52
S315000055E4A3075DD500F09EF82F4E074635684FF0A9
S315000055F4000A451B01F0E9FC8046DFF8B090D9F8B3
S315000056040040002C44D06369AB4205D95D1B65613B
S315000056143760FFF74DFE3EE023462A463760596958
S31500005624914209D8187994F804C0521A844588BF5F
S315000056341C469B68002BF2D1404601F0CCFCD4F802
S315000056441480C4F814A001F0C0FC83462046FFF77A
S3150000565471FE584601F0BFFC23694BB101F0B5FC5D
S31500005664834621692046FFF7E5FD584601F0B3FC61
S31500005674E36813B121682046984700F053F847447D
S31500005684ED1B0446054401F0A0FC27468046B6E718
S31500005694022000F079F84046BDE8F84F01F09BBCC3
S315000056A4BDE8F88FF4540020EC540020F854002090
S315000056B41FB5194B18689A88029053F8060FADF86F
S315000056C40C201B7900908DF80430002302A88DF875
S315000056D408308DF80C3001F0D9FE6946012001F03E
S315000056E499FE4FF090431F219A6922F01F029A6196
S315000056F40A4A11609A6A12F00802FBD11A62012062
S3150000570401F0A2FE4FF48062054BC3F880211A60B3
S3150000571405B05DF804FB00BF6C09030014200048C3
S3150000572400E100E04FF090439A6A1207FCD4186A2D
S3150000573470474FF09042936A1907FCD4136A116CB0
S315000057445269120704D4CA1A022A01D899420ED100
S31500005754C21A012A98BF981CB0F1FF3F28BF013036
S315000057644FF0904318649A6942F008029A617047B0
S3150000577482074FF0904200F00103916948BF43F05D
S3150000578408030B43936170474FF0904100F0010208
S3150000579483078B6948BF42F0080223EA02038B6140
S315000057A47047000010B501F010FC4FF0904304461A
S315000057B45B691A07074A03F0010003F00D0348BFAB
S315000057C440F002001360FFF7FDFE2046BDE81040DE
S315000057D401F001BC142000481B2001F007B90000A9
S315000057E4002211462D48F0B503682D4D54592CB1AD
S315000057F41E68AC18002E3DD1234601210832282A02
S31500005804F4D101B10360002214462649264E0B68E2
S3150000581495592DB11F68B518002F32D12B46012496
S315000058240832282AF4D104B10B6000680368002BFF
S315000058342FD04FF04022936F007923F0FF7323F4A7
S31500005844803343EA00439367184B4FF000420968DC
S315000058541A600B68FBB14FF04022936F097923F469
S31500005864FF7323F001030B439367104B4FF0804201
S315000058741A60F0BD1E792779B74284BF23460121F9
S31500005884BCE71F7995F804C0BC453CBF2B460124F0
S31500005894C6E7074BD9E7064BE8E700BF00550020EB
S315000058A4105500200455002038550020685000404B
S315000058B46860004010B5012228240F4B00211A709D
S315000058C40E4822462BF006F8224600210C482BF0FF
S315000058D401F80C4B0C4A13600C4A13604FF040431A
S315000058E40B4A1360536020220A4BC3F880211A60C6
S315000058F4FFF776FF002010BDFC5400201055002051
S315000059043855002008550020005500200455002075
S315000059146460004000E100E04FF04023D3F88800C3
S315000059246FF48873C0F38800184440B270470000CF
S315000059344FF0402208B5936E526E134013F0804127
S3150000594411D0114B1B681A682AB1002119605960DD
S31500005954FFF7E2FF90474FF080420C4B1A60BDE818
S315000059640840FFF73DBF002BF9DA094B1B681A689C
S315000059742AB119605960FFF7CFFF01219047034B05
S315000059844FF00042EAE700BF04550020646000407F
S3150000599400550020FFF7CCBF012203685A619A69BB
S315000059A4D207FCD541F2AC52042103795B0103F121
S315000059B4804303F5703399507047000038B141B104
S315000059C4013AB2F5006F044838BF00207047034817
S315000059D470470148704700BF037000F0027000F082
S315000059E438B504460D4601F0F0FAA28892B222B9FF
S315000059F42A6001F0F0FA064838BD1422638802FBD7
S31500005A04034308332B6001F0E6FA0020F4E700BFF5
S31500005A140B7000F038B504460D4601F0D6FAA3889B
S31500005A249BB223B92B6001F0D6FA0C4838BD142278
S31500005A346388E18802FB034308332B6063885A1C9E
S31500005A4492FBF1F301FB13239BB26380A388013B12
S31500005A549BB2A38001F0BFFA0020E7E70B7000F0C9
S31500005A6490F83130022B0BD13022437F90F821007D
S31500005A745A43044B9B5823FA00F000F00100704788
S31500005A840020704714C00340002313B51C4A52F883
S31500005A94234094F8211081420ED00133042BF6D111
S31500005AA402B010BD0028FBD19DF80730002BF7D0BB
S31500005AB4A068FFF781FAF3E794F83130022BEFD1AF
S31500005AC42046FFF7CDFF637E2076022BE8D194F8BB
S31500005AD42E3003F0FF02002BE2D102A901F8012DBA
S31500005AE4A068FFF7C9FA237E1BB194F82F30002B68
S31500005AF4D8D00023A06884F82F30FFF77DFACFE7CB
S31500005B0460550020012230B590F8324087B080F805
S31500005B142C207CB9094D0368CDE9024504904C68F4
S31500005B242433CDE900240A684169C068FFF72AFADC
S31500005B3407B030BD002380F82C30F9E7F563000088
S31500005B44012330B590F8324087B080F82D307CB907
S31500005B54094D0268CDE9024504904C683C32CDE912
S31500005B6400340B6801698068FFF7F2F907B030BDAD
S31500005B74002380F82D30F9E7815B0000F7B5906AC1
S31500005B8401A91446FFF72CFF144B984220D0002598
S31500005B94019B1D619D6001F018FA019A0746D668BB
S31500005BA426B1D2E9002329462046B04701A9A06AB6
S31500005BB4FFF730FFA06A83889BB263B101A9FFF7A0
S31500005BC40FFF01992046FFF7BBFF384601F003FAA1
S31500005BD4012003B0F0BD84F82D30F6E70B7000F019
S31500005BE4F8B5044617460D4601F0EFF9A388E28896
S31500005BF406469A4205D800233B6001F0ECF91648A4
S31500005C04F8BD1422238805F1100C02FB0343083364
S31500005C142A4603CA624518605960154603F108030B
S31500005C24F6D11068142218602388E18802FB034326
S31500005C3408333B60238830465A1C92FBF1F301FB80
S31500005C4413239BB22380A38801339BB2A38001F064
S31500005C54C2F90020D4E700BF0A7000F02DE9F34131
S31500005C640D460446002800F0868001F0AEF9012DA9
S31500005C74064637D1A36A9B889BB2002B39D0A0680D
S31500005C84FFF7DAF90023A06A84F82D3083889BB2E3
S31500005C94002B34D1226893699B04FCD5023D012D67
S31500005CA41BD8E068FFF7C8F90023606A84F82C3033
S31500005CB483889BB2002B41D194F83130032B0CD04E
S31500005CC442F2AC52042123795B0103F1804303F5CC
S31500005CD470339950022223685A61304601F07BF9E9
S31500005CE4002009E0022D48D1636A9B889BB2002BF1
S31500005CF4D4D101F070F9264802B0BDE8F08101A9BB
S31500005D04FFF76EFE0199A0680831FFF7DDF9214F10
S31500005D14019B1F61A06A83889BB2002BBAD001A99C
S31500005D24FFF778FE019BD3F80C80B8F1000FF1D091
S31500005D349B68002239462046C047EBE76946FFF7D1
S31500005D444FFE0099E0680831FFF7BEF9114F009B3A
S31500005D541F61606A83889BB2002BADD06946FFF74A
S31500005D6459FE009BDD68002DF3D09B68002239465E
S31500005D742046A847EDE70848BEE7032D8ED1A36A5F
S31500005D849B889BB2002B7FF47AAF636A73E700BFEC
S31500005D94087000F0097000F0027000F0036898695A
S31500005DA47047436A9888C0B270472DE9F341984614
S31500005DB400230546406A0E4684881746A4B2CDE9F8
S31500005DC400333CB16946FFF70BFE01A90446E868B7
S31500005DD4FFF77AF9009969B164B94868019BC01A5A
S31500005DE43860C8F800300B6833602B68986902B0D5
S31500005DF4BDE8F0810021C8F8001039603160F4E78D
S31500005E04836A9888C0B270472DE9F3419846002307
S31500005E140546806A0E4684881746A4B2CDE9003347
S31500005E243CB16946FFF7DCFD01A90446A868FFF703
S31500005E344BF9009969B164B94868019BC01A386086
S31500005E44C8F800300B6833602B68986902B0BDE867
S31500005E54F0810021C8F8001039603160F4E7007E53
S31500005E6470472DE9F04104460F469046FFF7A6FD1C
S31500005E740546002839D1152001F0CCF80646A26A59
S31500005E8493889BB213B194F82E308BB323689E6922
S31500005E9416F002060ED104225A619A699207FCD5BD
S31500005EA441F2AC52102123795B0103F1804303F5DF
S31500005EB470339950012384F8303094F8323033B972
S31500005EC4B8444745206818D183699B06FCD566B952
S31500005ED442F2AC52102123795B0103F1804303F5AE
S31500005EE470339950082223685A612846BDE8F08128
S31500005EF4002EC5D0FFF70AF9C1E717F8011B01F018
S31500005F0449FDDEE710B5044680B190F82E302BB972
S31500005F14FFF7A6FD10B9A068FFF74EF8002094F825
S31500005F242E300133DBB284F82E3010BD0048FCE776
S31500005F34027000F010B50446A0B190F82E309BB163
S31500005F4490F82E30012B05D1FFF78AFD10B9A06811
S31500005F54FFF752F8002094F82E30013BDBB284F8A8
S31500005F642E3010BD0148FCE70148FAE7027000F044
S31500005F74057000F037B590F831500446022D1ED155
S31500005F84012190F82220457E837F01FA02F2302017
S31500005F94154925B900FB031342F2100105E0012D52
S31500005FA407D100FB031341F210015A50002003B03D
S31500005FB430BD247E00FB0313002CF4D1ECE7012D45
S31500005FC4F4D1037E73B911238DF80730FFF79AFFD6
S31500005FD42A460DF107012046FFF743FF2046FFF747
S31500005FE4A9FFE3E71323EFE700C00340F0B5044637
S31500005FF48BB09E4F03AE0D460FCF0FC697E8070032
S3150000600486E807001CB99A4C20460BB0F0BD0DB9C2
S31500006014984CF9E73822002120462AF05BFC964981
S31500006024964A0B78002B40F0D3800120C2E9003356
S31500006034C2E90233087042F823402B7D286884F8AD
S3150000604431300023206084F832302B7B23718C4B53
S31500006054984240F0CA80202384F82330894B236178
S315000060644FF4802300266361D5E907236262168014
S315000060745680968084F82C60A3621E805E809E8083
S315000060846B6803A90593EB8984F82D60ADF81C3081
S315000060942B8A84F82F60ADF81A30AB7C8DF80C602F
S315000060A48DF81830EB7C8DF81E3005238DF81930E9
S315000060B401F0F2FB14212A7B734B287A03EB421777
S315000060C4C7F8AC15A97A2E3240EA014C03EB421309
S315000060D4C3F804C06A7AEB7A42EA034CC7F8BCC533
S315000060E4E17784F820306B7DE07622776377AB7DA9
S315000060F4042284F82130EB7DA3772B7E84F82230AA
S31500006104012301F047F80123022294F82010207F8E
S3150000611401F040F894F83130022B7DD13346012248
S3150000612494F82110607F01F035F83346042294F880
S315000061342210A07F01F02EF8012394F82120607F1D
S315000061441146CDE9003300F0DFFF00F03EFF2E7D5F
S315000061540746032E71D141F2AC5202212B7B042057
S315000061645B0103F1804303F57033995041F25C02FD
S3150000617429688850297EEA7D42EA014241F2B851F3
S315000061845A50A97D6A7D42EA014241F2B4515A50FD
S315000061944FF0FF3242F248032868C2502B7D032B8E
S315000061A40CBF0521042101F031FB4FF440622B683A
S315000061B45A61FEF797FE002104F10800FEF720FE5F
S315000061C4014600284AD0314C384600F004FF1BE74C
S315000061D4002352F8231000293FF42DAF8C423FF4DC
S315000061E42AAF0133042BF4D10DE7294B984207D18A
S315000061F4212384F82330274B23614FF4A02331E76E
S31500006204254B98427FF404AF222384F82330234B92
S3150000621423614FF4C02325E7032B96D1334694F824
S315000062242110607F012200F0B5FF3346042294F862
S315000062342210A07F00F0AEFF87E7022EA8D194F8C3
S3150000624421001749FEF7C0FFFEF7B0FF002366766C
S31500006254A37623762046FFF78DFE99E704F10C001A
S31500006264FEF7CEFD04460028AED0ACE7780903005D
S31500006274027000F0037000F0705500206055002095
S31500006284008005400200040000C003400E7000F0C8
S3150000629400C005400200050000000640020006009A
S315000062A48D5A000090F83130032B05D0022941762F
S315000062B418BF0176FFF75EBE00487047057000F010
S315000062C413B50446002862D00321FFF7C7FC00215A
S315000062D42046FFF7E7FF0023E17F1A46E07E00F041
S315000062E459FF002394F820101A46207F00F052FF2D
S315000062F494F83130022B39D1002394F821101A4630
S31500006304607F00F047FF002394F822101A46A07F0E
S3150000631400F040FF0021012394F82120607FCDE99D
S315000063240031114600F0F0FE94F8323013B90A2217
S3150000633423685A6194F83130032B04D0002194F871
S315000063442100FEF741FFA068FEF7A6FDE068FEF710
S31500006354A3FDFEF781FD0020636A188058809880AB
S31500006364A36A18805880988002B010BD032BDBD135
S31500006374002394F821101A46607F00F00BFF0023D7
S3150000638494F822101A46A07F00F004FFCCE70148D7
S31500006394EAE700BF027000F0F0B587B0044616467F
S315000063A4FFF70CFB0546E8B90493104BCDE901163B
S315000063B46A4601A9606A03960593FFF711FC054630
S315000063C480B994F82C306BB92046FFF7E5FA0099AA
S315000063D4FFF798FB94F83130032B03D0257620463B
S315000063E4FFF7C8FD284607B0F0BD00BF017000F0F6
S315000063F473B5506A01A91446FFF7F2FA2F4B984277
S3150000640430D094F83200019B002839D12268916C6F
S3150000641411F4007129D02A499860196142F248039F
S315000064244FF40071D15000F0D0FD01990646CD68B5
S3150000643435B14A688B682046D31A0A680969A847A1
S3150000644401A9606AFFF7E6FA606A8588ADB2DDB134
S3150000645401A9FFF7C5FA01992046FFF753FB304619
S3150000646400F0B9FD012002B070BD906CC00507D5DF
S315000064741448996018614FF4807142F24803D1E7D9
S3150000648400221A619A60CEE7012320462376FFF79D
S3150000649471FD94F8313084F82C50032BDFD042F28E
S315000064A4AC52042123795B0103F1804303F5703375
S315000064B49950022223685A61D1E700BF0B7000F09D
S315000064C40D7000F00C7000F090F8312010B5012A20
S315000064D4034610D102290ED0827E8A4201D10020C1
S315000064E410BD997611B9FFF725FDF8E70129F6D114
S315000064F4FFF708FDF3E70148F2E700BF057000F077
S31500006504F0B587B004461646FFF758FA054600BBB1
S315000065140493114BCDE901166A4601A9A06A0396B4
S315000065240593FFF75DFB054698B994F82D3083B9BA
S3150000653400F04BFDA36A06469B889BB233B10099D3
S315000065442046FFF7FDFA012384F83030304600F088
S3150000655442FD284607B0F0BD017000F070B588B062
S315000065640E22002104A82AF0B5F901230D220021E8
S3150000657468468DF810302AF0ADF90223244C6A4699
S31500006584002120468DF8063001F0A4F8236B4FF65F
S31500006594FF73204EE36100233546ADF8123004A99B
S315000065A4204601F04AF8062000F020FABDF8123021
S315000065B40133B0FBF3F09BB2B3F5806F3060ADF8F6
S315000065C4123002D2144B9842E9D80E2000F00EFA8B
S315000065D41249134CB1FBF0F128680025E1FB004594
S315000065E4104A00232046294629F098FF0E4B084AF4
S315000065F4186000200D4B1870936923F01003936103
S3150000660440220B4BC3F880211A6008B070BD00BF4E
S31500006614008004407455002080841E0000B0710B75
S3150000662420A1070040420F00785500207C55002029
S3150000663400E100E0F7B500251D4B1E4C19681E4A03
S31500006644E0FB014500232046294629F067FF4FF663
S31500006654E85400254FF6E75E4FF0FF37DFF860C0D9
S31500006664164E8D4208BF844211D380B260B1144ADB
S31500006674516A89B2536A9BB2ADF80630BDF806304A
S315000066845B1A9BB29842F5D8002003B0F0BDDCF843
S31500006694242092B2DCF824309BB2ADF80430BDF865
S315000066A404309B1A9BB27345F4D980197941D8E713
S315000066B47455002020A1070040420F001802FFFF76
S315000066C400800440054B5A69D20606D542F21402EC
S315000066D4102199500122024B1A7070470080044021
S315000066E47C55002038B5124B0546D3F820310C46AC
S315000066F403F00703013B032B17D8DFE803F0020A74
S315000067040E1201F001FA042305B1286004B12370C6
S3150000671438BD01F0E3F90323F6E701F001FA052396
S31500006724F2E701F0F9F90223EEE700231846EBE756
S315000067340080004037B50C460021114B0191D3F877
S315000067448031054603F00303022B0ED0032B11D030
S31500006754012B03D101A8FFF7C5FF0D210DB1019B44
S315000067642B6004B1217003B030BD01F0D9F90521C5
S315000067740190F3E701F0D0F902210190EEE700BFA2
S315000067840080004038B5104B0546D3F840310C461E
S3150000679403F00303022B0BD0032B0DD0012B0FD1D7
S315000067A401F002FA082305B1286004B1237038BD4C
S315000067B401F000FA0723F6E701F0F9F90923F2E7F5
S315000067C400231846EFE700BF0080004038B5104BA1
S315000067D40546D3F860310C4603F00303022B0BD0B5
S315000067E4032B0DD0012B0FD101F0DEF9082305B1DF
S315000067F4286004B1237038BD01F0DCF90723F6E7FD
S3150000680401F0D5F90923F2E700231846EFE700BFA4
S315000068140080004038B5134B0546D3F800320C46C9
S3150000682403F00703013B032B18D8DFE803F0020A41
S315000068340E1201F0B9F9082305B1286004B12370DA
S3150000684438BD01F0B7F90723F6E701F0B0F90923DB
S31500006854F2E701F02DF90C23800AEDE70023184630
S31500006864EAE700BF0080004038B5134B0546D3F86D
S3150000687408320C4603F00703013B032B18D8DFE864
S3150000688403F0020A0E1201F08FF9082305B12860FD
S3150000689404B1237038BD01F08DF90723F6E701F042
S315000068A486F90923F2E701F003F90C23800AEDE7E0
S315000068B400231846EAE700BF0080004038B5104BB5
S315000068C40546D3F840320C4603F00303022B0BD0E3
S315000068D4032B0DD0012B0FD101F066F9082305B166
S315000068E4286004B1237038BD01F064F90723F6E784
S315000068F401F05DF90923F2E700231846EFE700BF2C
S315000069040080004038B5104B0546D3F800310C46DC
S3150000691403F00303022B0BD0032B0DD0012B0FD155
S3150000692401F0DCF8032305B1286004B1237038BDF7
S3150000693401F040F90723F6E701F0ECF80623F2E745
S3150000694401230020EFE700BF0080004041F67132CA
S315000069540F4B10B5D969DA639A680E4C22F44012CB
S31500006964A04288BF42F480129A600B4A0B4CD2F8BC
S315000069741832A04223F0020388BF43F0020301F455
S315000069848031C2F8183211B10022014BDA6310BD0E
S3150000699400000340C017530200C0074080F0FA020B
S315000069A408B501F097F8BDE80840FFF7CFBF00002F
S315000069B402280CD007D8012814D10B4B186FC0F34A
S315000069C4013001307047032807D00E28F4E7064B40
S315000069D4D3F89000C0F30460F3E7034B186FC0F3D9
S315000069E48020EEE70020ECE700800040002307B596
S315000069F40193242817D8DFE800F0131A1D262B3537
S31500006A043A3F44494E5358661A3F1616441A262BE3
S31500006A1426351A3F26663A3A3A3A262626494E003B
S31500006A2401F02CF80190019803B05DF804FB01F025
S31500006A343FF8F7E701F022F802460220FFF7B8FF15
S31500006A44B2FBF0F0EEE701F033F802460320F5E777
S31500006A5401F02EF802460320FFF7AAFFB2FBF0F07E
S31500006A644008DFE7002101A8FFF764FEDBE7002109
S31500006A7401A8FFF737FED6E7002101A8FFF782FE3B
S31500006A84D1E7002101A8FFF7A1FECCE7002101A868
S31500006A94FFF7C0FEC7E7002101A8FFF7E5FEC2E73E
S31500006AA4002101A8FFF72EFFBDE7094BD3F880307C
S31500006AB403F00303022BBAD0032B01D00020B1E765
S31500006AC401F02EF8AEE7002101A8FFF7F7FEAAE7CA
S31500006AD40080004002280AD002D8012804D070475A
S31500006AE403280FD00E2815D1084600F02BB80A4A01
S31500006AF40139D2F8903023F0F85343EA0161C2F821
S31500006B0490107047044A0139136F23F4806343EAF3
S31500006B1481211167704700BF0080004002210320D5
S31500006B24FFF7D8BF08B50120FFF760FFBDE80840AE
S31500006B34034988428CBF022101210320FFF7CABF03
S31500006B4480F0FA0210B50446FFF72AFFFFF7E6FFC6
S31500006B54074A013C106F20F4405040EA04301067A5
S31500006B6400F0A6FFFFF7F2FEBDE81040FFF7DABF1C
S31500006B7400800040002307B58DF80730242822D86A
S31500006B84DFE800F013212121212C32383E444A50FB
S31500006B945669213821213E212121212C21382169C0
S31500006BA432323232212121444A002E4B1B6F03F02C
S31500006BB40703013B032B06D8DFE803F00E020A0C99
S31500006BC404238DF807309DF8070003B05DF804FB35
S31500006BD40323F6E70623F4E70223F2E70DF10701A0
S31500006BE40020FFF7A7FDEEE70DF107010020FFF7F0
S31500006BF479FDE8E70DF107010020FFF7C3FDE2E7A1
S31500006C040DF107010020FFF7E1FDDCE70DF10701B7
S31500006C140020FFF7FFFDD6E70DF107010020FFF77F
S31500006C2423FED0E70DF107010020FFF76BFECAE74C
S31500006C340C4BD3F8803003F00303022B03D0032B51
S31500006C4405D00023BDE700F033FF0B23B9E700F0BE
S31500006C5467FF0523B5E70DF107010020FFF72EFEB8
S31500006C64B1E700BF0080004070B50C46242848D820
S31500006C74DFE810F0250047004700470047005B00A7
S31500006C846C007D008E009F00B000C100D200E300BE
S31500006C9447007D00470047008E0047004700470035
S31500006CA447005B0047007D004700E3006C006C0072
S31500006CB46C006C004700470047009F00B0008B1E25
S31500006CC4042B2FD8DFE803F02B1E032E2800002503
S31500006CD40226FFF765FEFFF721FF604A136F23F0D4
S31500006CE407033343136700F0E3FEFFF72FFEFFF7B6
S31500006CF419FF35B9032C04D142F228030121584A5D
S31500006D04D15070BD41F228020121554B03269D6ADC
S31500006D149950C5F34005DCE700250426D9E700258C
S31500006D240126D6E700252E46D3E78C1EE4B20B2CAB
S31500006D348CBF00214B4B494A98BF195DD2F880316C
S31500006D4423F003030B43C2F88031DAE78C1EE4B266
S31500006D54032C8CBF0021444B404A98BF195DD2F8DE
S31500006D64203123F007030B43C2F82031C9E7CC1FB7
S31500006D74E4B2022C8CBF00213C4B384A98BF195D03
S31500006D84D2F8403123F003030B43C2F84031B8E78D
S31500006D94CC1FE4B2022C8CBF0021354B2F4A98BF7E
S31500006DA4195DD2F8603123F003030B43C2F8603156
S31500006DB4A7E7CC1FE4B2052C8CBF00212D4B274A34
S31500006DC498BF195DD2F8003223F007030B43C2F8CB
S31500006DD4003296E7CC1FE4B2052C8CBF0021264B6B
S31500006DE41E4A98BF195DD2F8083223F007030B43F5
S31500006DF4C2F8083285E7CC1EE4B2042C8CBF00210D
S31500006E041E4B164A98BF195DD2F8003123F00303CE
S31500006E140B43C2F8003174E705290CD00B290CBFCB
S31500006E24022100210D4AD2F8803023F003030B43DC
S31500006E34C2F8803065E70321F4E7CC1FE4B2022CE4
S31500006E448CBF00210E4B054A98BF195DD2F840321B
S31500006E5423F003030B43C2F8403252E7008000409C
S31500006E6400C0004094090300A0090300A40903001C
S31500006E74A4090300A7090300A7090300AD09030039
S31500006E84A4090300F8B504460020FFF773FE03289F
S31500006E947BD045F60E03424A0221C2F8803041F205
S31500006EA42803D15042F228030121D150916D11F4E7
S31500006EB48031FBD1637820781B0543EA0063A0790F
S31500006EC4374E0343E078657C43EA0043207943EA7E
S31500006ED40033607943EA80131361237AE0791B0651
S31500006EE443EA8063E07A0343607A43EA0043A07A84
S31500006EF443EA00239361637B126A002B18BF0821BF
S31500006F04207B22F00D0243EA020343EA800341EAAE
S31500006F140301A37B31624FEA4317E37B207C4FEAEC
S31500006F240311334632D1B26A22F0330242F001022F
S31500006F343A430A43B2621B4A996D32EA0101FBD114
S31500006F4441F2280202219950154A936D5B00FCD444
S31500006F541169A37821F4700141EA0351116141F2E8
S31500006F6418034FF00041D15018B942F22803022108
S31500006F74D15025B942F228030121094AD150A37CF4
S31500006F841BB1074B084AC3F88020F8BDB36A23F047
S31500006F9433032B433B430B4343EA4003B362EEE71D
S31500006FA400C0004003000140F1A7FFFFEFF310808B
S31500006FB472B6704700B962B67047302383F31188FE
S31500006FC47047002383F311887047EFF31180302351
S31500006FD483F31188704780F311887047EFF31083A9
S31500006FE4DB0706D4EFF311802F2894BF002001207D
S31500006FF47047012070470000054A410900F01F034D
S3150000700452F82100D840C04300F00100704700BF89
S3150000701400E100E010B50446EFF31083DB0733D438
S31500007024FFF7EAFF00282ED1002CABBF04F1604421
S31500007034164B04F5614404F00F04ACBF94F8002326
S315000070441A5D1209EFF3118313B1B2EB131F1BD2AE
S315000070540F4C6368C3F30803ABB1103BDBB259B200
S315000070640029B5BF03F00F0301F16043043B03F5A8
S315000070746143B6BF1B1993F80003187E00098242C8
S3150000708434BF0020012010BD0120FCE714ED00E010
S3150000709400ED00E070477047084A10B513690446CE
S315000070A443F004031361FFF7F5FF30BFFFF7F3FF67
S315000070B41CB9BDE8104000F0FBBC10BD00ED00E0BB
S315000070C4FFF7EABF4FF040234AF6E850DA6ED96E6E
S315000070D422F0030242F0020241F003011866DA6666
S315000070E4D966DA66D966DA66D966DA66D966DA669A
S315000070F470474FF04022D36E017923F030030B43DF
S31500007104D366704770470000072A70B510D8032469
S315000071149500184EAC403460A840A6F58056306001
S31500007124154801F003010460A940A0F580500160F0
S3150000713412491348002B14BF0B460346012101FADA
S3150000714402F21A609DF810000E490F4B002808BF82
S315000071540B461A6042F220430C499DF81400CA50AB
S315000071640B4B01F510512431002808BF0B461A6059
S3150000717470BD00BF00E4034008E4034010D403409C
S3150000718410E4034014E4034014D4034000C0034055
S3150000719424D40340F0B54AB1012530241D4E8D4058
S315000071A404FB00640BB341F21006A551302444439A
S315000071B4072904F1804404F5703419D80F2765684B
S315000071C48E00B74025EA070502FA06F635436560E0
S315000071D452B9012202FA01F130220E4C02FB0040A0
S315000071E4A3B141F21003C150F0BD42F21006DCE730
S315000071F40F2701F18045083DE668AD00AF4026EA59
S31500007204070602FA05F53543E560E1E742F21003A5
S31500007214E9E700BF00C003404FF40012064BC3F871
S315000072248020BFF34F8FBFF36F8F0022FF21034BE4
S315000072345A6599625A60704700E100E00000044014
S31500007244054B064A00290CBF19461146012303FAC9
S3150000725400F00860704700BF40100440402004401E
S3150000726430B5047845788178C27801200F4B41EA1D
S315000072740541240658609C609961FF2199620021AA
S31500007284996319644FF000414FF0FF30596542F29B
S31500007294500158504FF4001005491301DBB2C1F8F0
S315000072A4800181F81533086030BD00BF000004403A
S315000072B400E100E02DE9F0410C4601264FF0300EC6
S315000072C4C3B29E40204D23688F7A91F80B8094F8C0
S315000072D40DC0097B45F82030A5F580450EFB00500E
S315000072E44FEA085343EA074343EA4153C0F860C0F0
S315000072F4C36542F2500322F003020267EE50FFF721
S3150000730464FE6B6D33436B65237A13B12B6C334385
S315000073142B64637A13B1AB6B3343AB6342F218014C
S315000073242379A27942EA0342084B5A506179E279F9
S3150000733442EA014241F218015A50054A16609E6417
S31500007344BDE8F041FFF747BE00400440000004409A
S315000073543420044010B50124C0B28440FFF735FE42
S31500007364044B5A6D22EA04025A659C62BDE8104039
S31500007374FFF731BE00000440F8B50125C3B29D40B5
S315000073840446FFF722FE3022094B02FB04341E6D2D
S315000073945F6B646EFFF71FFE3D4206D1C4F30A100D
S315000073A408B9354200D10130F8BD0020FCE700BF22
S315000073B40000044041F67132034B0121DA6342F2C4
S315000073C40C029950704700BF0000034041F6713229
S315000073D4044B0121DA6342F20C0299500022DA636B
S315000073E4704700BF000003404FF40032014B1A609F
S315000073F4704700BF705000404FF04023D3F894000C
S3150000740470474FF090435A6812B19A6A002AFAD12B
S3150000741470470000CB784A7810B55B010C7843EAD4
S3150000742482030A79234343EA02130C22424302F1FC
S3150000743490421363012C02BF8A78024B43F8202042
S3150000744410BD00BFD080034008B54FF090435A6882
S3150000745402B960B15B680BB1FFF7D3FF4FF09041FF
S3150000746430B10120074B1860FFF7CBFFC86008BD99
S31500007474FFF7C7FF0223CB60FFF7C3FF0122024BCE
S315000074841A60F4E704100048042000484FF09043C3
S315000074945B6870B50BB1FFF7B4FF0121104B067999
S315000074A4196083784578002BC37814BF022400241E
S315000074B4002B14BF042200224379DB0043EA06139F
S315000074C42B43234313434FF090429360054B1960BB
S315000074D40378002B14BF0B460223D36070BD00BF94
S315000074E404200048041000484FF098435A6CD20216
S315000074F4FCD5586D00F470207047436813B9416099
S3150000750470475B685A68012AFBD1596070478368E3
S3150000751413B9816070475B685A68012AFBD15960C8
S315000075247047C369032B9FBF00EB83020133D1600D
S31500007534C3617047C369042B15D84FF09842116C88
S31500007544C902FCD504339B0013650168103B116026
S3150000755441680C30116050F8041C034411604FF06C
S315000075649842984200D1704750F8041B1160F8E71E
S3150000757470B58CB0144605461C220E4605A800219B
S3150000758429F0A8F90D4B01960493012301A902934E
S3150000759404A844F000530393FFF7AFFF294604A859
S315000075A4FFF7BFFF214604A8FFF7BBFF04A8FFF7B8
S315000075B4C1FFFFF799FF0CB070BD00BF000009437F
S315000075C4054B5B69C3F38512827003F03F021B0B04
S315000075D442700370704700BF00C0074030B5114CBD
S315000075E4A04216D004F58044A04214D004F5804489
S315000075F4A04212D004F58044A0420CBF03204FF0F1
S31500007604FF30094C062553B105FB001044F8202031
S3150000761430BD0020F5E70120F3E70220F1E712026E
S31500007624F2E700BF008004401C810340036BDA07C5
S3150000763402D503695B06F9D4704710B50446FFF713
S31500007644F5FF012242F23003C2500B7948881B022F
S3150000765443EA8043487A03434878002814BF40200D
S3150000766400200343887A002814BF802000200343A7
S31500007674C87A002814BF202000200343087B002872
S3150000768414BF102000200343487B002814BF0820A1
S31500007694002003438879002814BF4FF4803000206B
S315000076A40343636041F23003E2500A780AB90223C5
S315000076B4E3600023C87963620B7A497943EA80035D
S315000076C4002914BF102100210B43A3600AB1012332
S315000076D4E36010BD70B515460646FFF7A7FF42F2F4
S315000076E430030122C250EA79EC7A002A6A7A14BF7E
S315000076F44FF480100020002A14BF10220022AB7918
S3150000770443EAC4430343134306EB411423662B7A2B
S3150000771433B32B7B226E304642EA4342226613F190
S31500007724FF3318BF0123AA78FFF758FF41F230034D
S315000077340122F2506B782A781B0643EA8263EA78C0
S3150000774443EA02332A7943EA82236A7943EA022323
S31500007754AA7A002A14BF042200221343636670BD6A
S31500007764236E2366E2E700000D4B984208D1A3F589
S315000077740033C3F88411C36D43F08003C3657047B7
S31500007784084B984204D1A3F51033C3F89411F2E7D9
S31500007794054B984204BFA3F52033C3F8A411EAE7C6
S315000077A40080054000C005400000064070B505464F
S315000077B416461C4619B90320FFF718F90146202C72
S315000077C408D001D8ECB170BD402C18D0602CFAD189
S315000077D4042200E0082206FB02F35A0802EB4112D7
S315000077E4B2FBF3F2084B203A03EAC202AB6823F079
S315000077F46003AB60AB681C43AC60EA61E3E7062256
S31500007804E9E71022E7E700BFF8FF7F00012241F213
S315000078140403C250CB43934003F00A03436141611E
S3150000782411B942F20403C2507047000041F2040346
S315000078340122C25040F6AA6341F2050243610023C5
S315000078448360C365C26042F2480210490361C361A2
S31500007854C36481500E4A8365904206D00D4988421E
S3150000786403D001F5804188420BD19042036506D0CE
S31500007874084B984203D003F58043984201D1002374
S31500007884436542F204030122C2507047FFFF010020
S315000078940080054000C0054038B50D460446FFF794
S315000078A4C5FF41F204030122C250AB7C1BB18368BD
S315000078B443F080438360EB7C1BB1297D2046FFF7B0
S315000078C453FF2A8A6B7B20461343EA891343E360FA
S315000078D4D5E901122B7BFFF769FF6B7D1BB1A3680A
S315000078E443F48033A360AB7DEA7D1B07120502F4E3
S315000078F4E00203F0E043297E1343A3658B1E012BAC
S315000079041E4A1F4B21D894421BD002F58042944252
S3150000791419D002F5804294420CBF02224FF0FF3286
S3150000792403EB4213022041F2AC52032998500CBFD8
S3150000793441F25C0342F25C030422E2502B78636159
S3150000794438BD0022ECE70122EAE7944211D00D4A41
S31500007954944210D002F5804294420CBF02224FF0AA
S31500007964FF3203EB4213022042F2AC520129985033
S31500007974DDE70022F5E70122F3E700BF00800540BA
S3150000798400C0034000C0054083691B06FCD5406A5D
S31500007994C0B2704783695B06FCD5C163704743690F
S315000079A4002B07DB39B9436ADB07FCD442F2040334
S315000079B40122C250704741F20403F9E7436810B547
S315000079C4DA0704460AD5FFF700FB636ADB075CBFE8
S315000079D40123E360BDE81040FFF7FDBA10BDF8B51A
S315000079E4436805460C4633B16B6A002BFCD142F260
S315000079F404030122EA506378227A002BA37814BF89
S31500007A044FF0100C4FF0000C002BE37814BF022744
S31500007A140027002B237914BF04260026002B637A43
S31500007A2414BF08200020002B14BF4FF480710021DE
S31500007A34E379120742EA0362A37942EA034343EA7B
S31500007A440C033B43334303430B43AB602178284683
S31500007A54FFF7A5FF63790BB100232B62F8BD000085
S31500007A64044B054A9A60D3F8882042F47002C3F89E
S31500007A748820704700ED00E000420000084B1B6FB1
S31500007A8403F00703022B04D0032B05D0012B05D0EA
S31500007A94FEE7044B18687047034BFBE7034870473F
S31500007AA400800040604D0020644D0020002D31010F
S31500007AB408B5FFF7E3FF054B1B6FC3F3013301332F
S31500007AC4B0FBF3F0024B186008BD00BF0080004015
S31500007AD45C4D00200048704700B4C404014B18688C
S31500007AE4704700BF644D0020054B1860054B1B6FA3
S31500007AF403F00703032B01D1FFF7DABF704700BF7A
S31500007B04644D002000800040014B1868704700BF98
S31500007B14604D00200020704700487047002D310159
S31500007B24174B9868C0F304400C2826D8DFE800F009
S31500007B34092525252525071B1D251F212300114859
S31500007B4470479B6803F04073B3F1807F07D0B3F1AD
S31500007B54007F06D00C4A002B08BF104670470B481E
S31500007B6470470B4870470B4870470B4870470B48E3
S31500007B7470470B4870470B4870470020704700BF9A
S31500007B840040014A405DC60000093D0080841E0095
S31500007B9440420F000024F400C0EA210180BA8C019F
S31500007BA40048E801005A62024FF4004070474FF45F
S31500007BB47A707047014B1868704700BF684D002003
S31500007BC408B528231B689B69DB0205D5012803D861
S31500007BD440F202201AF06EFB012008BD28231B6820
S31500007BE49868C0F30343C0F303621B0243EA0233FB
S31500007BF4C0B218437047000070B50438C6B0FA28FE
S31500007C0401F22C87DFE810F036022A0F2A0F2A0F1A
S31500007C143F022A0F2A0F2A0F2A0F2A0F2A0F2A0F8A
S31500007C24DB03C9032A0F2A0F820A39044404920388
S31500007C34A1032A0F85042A0F2A0F9D044301EF028C
S31500007C4419031B01AC032A0F2A0F56082A0F2A0F01
S31500007C5409024802CC0C2B0DEB0CD80CB90C180DF0
S31500007C64580D2A0F2A0F4D050807A501F1058605AB
S31500007C743706D00664060503FB00B201F2012A0F9B
S31500007C841804210659052A0F2A0F2A0F2A0F2A0F2C
S31500007C942A0F2A0F520196017D012A0F2A0F2A0F55
S31500007CA4D307B2062A0F2A0F2A0F2A0F2A0F2A0FE2
S31500007CB42A0F2A0FC007A80437075107BA04CF04AE
S31500007CC437051D052A0F06058F072A0F3609980A58
S31500007CD4B20AB109C7097C09FA0A270A2A0F0D0B49
S31500007CE4810CF709D70A4E0B420B97098109310B10
S31500007CF42A0FC60187038C022A0F2A0F7007F00485
S31500007D042A0F2A0FBF05DA0D670DF90D110EED0DB9
S31500007D14050E8B0DA10D730DC40D7F0D2A0F2A0FB1
S31500007D242A0F2A0F2A0F2A0F2A0F2A0F9C062A0F18
S31500007D342A0F61044F042A0FFF002A0F2A0F1D0E73
S31500007D442A0F570E0F0F930EC90EE10E7D0E2A0F42
S31500007D545F0B810B2A0F2A0F2A0F2A0FA607550934
S31500007D64AE0E70096808B9081D09ED082A0F2A0F16
S31500007D742A0F2704BB012A0F5B08B0081C08DC087D
S31500007D84EE0BC202D902E4022A0F2A0FA00B2A0F15
S31500007D94D70B0E0C2A0F2A0F2A0F2A0F4E0AFF089A
S31500007DA47304B7022A0F2F01E10834082808820851
S31500007DB48E080408100840084B086A0C860CA20CAE
S31500007DC4960C5A0C550C2A0F2A0F2A0F2A0F2A0F23
S31500007DD4D50E2A0F3A0E2A0FF20E030F6A0E60070B
S31500007DE42A0F2A0F2A0FE10483072A0F2A0FBE033C
S31500007DF4520375033D0324032A0F5D02F107012490
S31500007E04204646B070BD12AB01930AAB00930CAA90
S31500007E1424ABBB49012020F051FCBDF848309DF845
S31500007E2428202499BDF8300010F006FA46AA02F874
S31500007E34EC0DB449002020F041FC0124E0E724AB1A
S31500007E440CAAB149012020F039FC24999DF8300090
S31500007E5419F056FA46AA02F8D00DAA49002020F0D5
S31500007E642DFC0124CCE70CAB24AAA849012020F060
S31500007E7425FC9DF83010249807F082FC46AA02F8E7
S31500007E84D00DA049002020F019FC0124B8E724A84D
S31500007E9420F0EAF924A809F02DFC46AA02F8D00D30
S31500007EA49849002020F00AFC0124A9E70CAA954968
S31500007EB4012020F003FC24A99DF8300019F01EFAD5
S31500007EC446AA02F8D00D8F49002020F0F7FB24A91A
S31500007ED4082020F0B3F99DF8980020F077F9BDF852
S31500007EE49A0020F083F99DF89C0020F06FF99DF824
S31500007EF49D0020F06BF99DF89E0020F067F901249F
S31500007F047EE786230BAA7F4901208DF8483020F0AE
S31500007F14D5FB24A99DF82C0019F0F9F946AA12AB51
S31500007F2402F8E80D7A490093002024AB20F0C6FB42
S31500007F34012465E724A810F007FE46AA02F8D00D2E
S31500007F447049002020F0BAFB24A820F080FB01240D
S31500007F5456E724A810F0F4FD46AA02F8D00D24AB87
S31500007F646C49002020F0AAFB012449E7012446AA13
S31500007F7402F8884D6349002020F0A0FB40E709F091
S31500007F84DFF946AA02F8880D5E49002020F096FB28
S31500007F94012435E70CAA5B49012020F08FFB24A9B4
S31500007FA49DF8300012F086F846AA02F8D00D55491D
S31500007FB4002020F083FBBDF8900020F017F99DF80F
S31500007FC4920020F003F99DF8930020F0FFF89DF845
S31500007FD4940020F0FBF89DF8950020F0F7F80DF1D9
S31500007FE49601082020F02AF9012409E7082246AB65
S31500007FF403F8EC2D484924AA012020F05FFB12A9BE
S3150000800424A812F0FDFB46AA02F8E80D12AB3E497D
S31500008014002020F053FB0124F2E624A912A819F04B
S3150000802433F946AA02F8E80D12AB3A49002020F0CB
S3150000803445FB24A9082020F001F9BDF8980020F09A
S31500008044D5F89DF89A0020F0C1F89DF89B0020F021
S31500008054BDF89DF89C0020F0B9F8BDF89E0020F00C
S31500008064C5F89DF8A00020F0B1F8299820F0D2F8C0
S315000080740124C5E6012446AA02F8884D21490020B8
S3150000808420F01CFBBCE6002046AA02F8880D1D4918
S3150000809420F014FB0124B3E6082312AC214624A8DD
S315000080A48DF8303019F018F946AA0CAB02F8EC0D2D
S315000080B41A4901940093002024AB20F0FFFA01240E
S315000080C49EE60CAA0F49012020F0F8FA24A99DF88F
S315000080D4300007F0E9FB46AA02F8D00D0949002052
S315000080E420F0ECFA9DF8900020F070F89DF89100CD
S315000080F420F06CF89DF8920020F068F801247FE6E1
S31500008104F4090300470A0300F9090300160A0300E9
S31500008114BD170300360A030002170300FC09030017
S315000081240CAABE49012020F0C9FA24A99DF8300002
S3150000813410F080FF46AA02F8D00DB849002020F0BE
S31500008144BDFABDF8900020F051F8BDF8920020F079
S315000081544DF89DF8940020F039F89DF8950020F02C
S3150000816435F89DF8960020F031F89DF8970020F038
S315000081742DF8012444E619F02FF846AA02F8880DD2
S31500008184A649002020F09AFA012439E612AC0BAA7B
S31500008194A249012020F092FA224624A99DF82C0037
S315000081A419F01CF846AA02F8E80D24AB00949C4981
S315000081B4002020F083FA012422E619F013F846AAD7
S315000081C402F8880D9549002020F078FA012417E674
S315000081D419F006F846AA02F8880D9049002020F006
S315000081E46DFA01240CE60CAA8C49012020F066FAEB
S315000081F424A820F039F824A99DF8300009F026FBBC
S3150000820446AA02F8D00D8549002020F057FA012429
S31500008214F6E501240BAA8149012020F04FFA0CAAA5
S3150000822412AB8049012020F049FA46AA02F8884D8B
S315000082347A49002020F042FAE2E50AF04FFE46AA07
S3150000824402F8880D7549002020F038FA0124D7E594
S3150000825412AB00930BAA0CAB7349012020F02EFA43
S315000082649DF848209DF830109DF82C0014F004FA6F
S3150000827446AA02F8880D6949002020F01FFA012455
S31500008284BEE512AB0CAA6949012020F017FA9DF944
S3150000829448109DF8300014F0EDF946AA02F8880D4E
S315000082A45E49002020F00AFA0124A9E512AB0293E4
S315000082B40CAB01930BAB00930DF126020AAB5C49A0
S315000082C4012020F0FBF99DF848409DF930309DF8D7
S315000082D42C209DF8281000949DF8260014F0C6F969
S315000082E446AA02F8880D4D49002020F0E7F901243A
S315000082F486E512AA4949012020F0E0F99DF84800D4
S3150000830414F0B6F946AA02F8880D4449002020F074
S31500008314D5F9012474E511F0C1FE46AA02F8880DC8
S315000083243E49002020F0CAF9012469E524A820F07A
S315000083341BF824A809F0F2FA46AA02F8D00D374928
S31500008344002020F0BBF901245AE507F099FA46AA61
S3150000835402F8880D3149002020F0B0F901244FE5D8
S3150000836412AA2E49012020F0A9F99DF8480008F028
S31500008374C5FD46AA02F8880D2849002020F09EF97A
S3150000838401243DE520F027FC46AA02F8880D23497E
S31500008394002020F093F9012432E512AA1F49012096
S315000083A420F08CF99DF8480019F093FB46AA02F8D0
S315000083B4880D1A49002020F081F9012420E50AAB32
S315000083C404930DF12603039309AB029324AB0193A3
S315000083D412AB00930DF122020CAB1649012020F0DA
S315000083E46DF99DF82840BDF8903002949DF826401A
S315000083F4BDF8482001949DF82440BDF8301000943F
S315000084049DF8220019F067FB46AA02F8EC0D034911
S31500008414002020F053F90124F2E400BF470A0300C8
S31500008424000A03000A0A0300110A0300040A0300EF
S31500008434070A03000D0A030024A820F015F924A84E
S3150000844410F080FB46AA02F8D00DA949002020F0BE
S3150000845435F90124D4E412AAA549012020F02EF905
S315000084649DF8480008F05CFF46AA02F8880DA0496A
S31500008474002020F023F90124C2E424AA9D49012006
S3150000848420F01CF99C4BBDF8902001241A80B7E417
S3150000849424AA9849012020F011F9984BBDF89020A0
S315000084A401241A80ACE412AA9149012020F006F9AD
S315000084B49DF8480008F008FF46AA02F8880D8C4982
S315000084C4002020F0FBF801249AE412AA8C4901202A
S315000084D420F0F4F89DF9480007F022FA46AA02F8BB
S315000084E4880D8349002020F0E9F8012488E412AAC3
S315000084F47F49012020F0E2F89DF8480018F06AFE52
S3150000850446AA02F8880D7A49002020F0D7F80124FB
S3150000851476E40CAB00930BAA24AB7A49012020F035
S31500008524CDF89DF8302024999DF82C0006F0ECFD3A
S3150000853446AA02F8D00D6E49002020F0BFF80124A7
S315000085445EE406F0B3FE46AA02F8880D68490020E8
S3150000855420F0B4F8012453E412AA6549012020F05E
S31500008564ADF89DF848000FF034FA46AA02F8880DD3
S315000085745F49002020F0A2F8012441E408230CAA54
S315000085845B4901208DF8483020F098F824A99DF81D
S3150000859430000FF0C3FF12AB24AA5B49002020F081
S315000085A48DF801242CE412AA5149012020F086F802
S315000085B49DF848000FF0CAFF46AA22F8880D4D49D7
S315000085C4002020F07BF801241AE424A809F00AFE0E
S315000085D446AA02F8D00D4649002020F06FF824A8D8
S315000085E41FF089FE01240BE4082246AB03F8E82DAC
S315000085F4454924AA012020F061F824A810F0C2F805
S3150000860446AA02F8D00D3A49002020F057F8012472
S31500008614FFF7F6BB0CAA3649012020F04FF824A92F
S315000086249DF8300018F004FE46AA02F8D00D304931
S31500008634002020F043F824A81FF04AFE0124FFF787
S31500008644DFBB082312AA2B4901208DF8303020F015
S3150000865435F824A9BDF8480007F0C8FA46AA0CABB9
S3150000866402F8EC0D29490093002024AB20F026F8EB
S315000086740124FFF7C5BB082246AB03F8E82D2249BF
S3150000868424AA012020F01AF824A807F093FA46AA8F
S3150000869422F8D00D1749002020F010F80124FFF726
S315000086A4AFBB0DF02BFF46AA02F8880D1049002037
S315000086B420F004F80124FFF7A3BB0CAB009324AA13
S315000086C40BAB134901201FF0F9FF9DF830209DF8EC
S315000086D42C10BDF8900018F003FB46AA02F8D00D42
S315000086E4034900201FF0EAFF0124FFF789BB00BFFE
S315000086F4470A0300FE09030080510020865100202A
S3150000870405180300150A030002170300BD1703002A
S31500008714190A030008AB0BAAB449009301200CAB59
S315000087241FF0CCFF24A81FF0BBFD09AB12AACDE9AC
S31500008734003202930DF121020DF12203AC4901200E
S315000087441FF0BCFF129B0AAC03939DF824309DF8DE
S31500008754202002939DF82230BDF8301001939DF835
S31500008764213004940093BDF82C0024AB18F0CEFC01
S3150000877446AA02F8F20D23469E4900201FF09EFFEA
S315000087840124FFF73DBB08238DF821308DF82630F0
S315000087940DF1220302930BAB01930DF1210324ACDB
S315000087A4009308AA12AB944901200AAE0CAD1FF03F
S315000087B485FF9DF82230BDF82C20009412A99DF85F
S315000087C420000296019518F00FFD46AA0DF1260326
S315000087D402F8F40D88490093CDE90156234600209A
S315000087E41FF06CFF0124FFF70BBB0CAA8349012081
S315000087F41FF064FF24A81FF053FD0DF1260312AAEF
S31500008804CDE9003202930DF1220209AB7849012029
S315000088141FF054FF12990BAC01919DF826109DF898
S3150000882424309DF8222002940091BDF8300024A93A
S3150000883418F0F8FB46AA02F8F00D23466D4900200D
S315000088441FF03CFF0124FFF7DBBA0CAB24AA6C49EA
S3150000885401201FF033FF9DF83010BDF890000AF098
S31500008864B7FE46AA02F8D00D664900201FF026FF7F
S315000088740124FFF7C5BA24A81FF012FD0AAB12AAF9
S31500008884CDE9013203930DF1260300930DF1220283
S3150000889409AB5D4901201FF011FF12980CAC019041
S315000088A49DF828009DF826309DF824209DF8221076
S315000088B40294009024A818F0C1FB46AA02F8EC0D15
S315000088C423464C4900201FF0F9FE0124FFF798BA0D
S315000088D424A81FF0E5FC0DF1260312AACDE9033204
S315000088E4059309AB02930DF1220301930CAB00939C
S315000088F408AA0DF12103454901201FF0DFFE129855
S315000089040BAC03909DF82600BDF8303002909DF81C
S3150000891424009DF8212001909DF822009DF8201046
S315000089240494009024A818F0BDFB46AA02F8F00DA2
S315000089342346304900201FF0C1FE0124FFF760BA28
S315000089440CAA009224AB324901201FF0B7FE2499E9
S315000089549DF8300018F07DFB46AA02F8D00D29498F
S3150000896400201FF0ABFE0124FFF74ABA0CAB0AAA9B
S3150000897402930BABCDE90023264924AB01201FF05B
S315000089849DFE9DF830309DF82C2024999DF82800F2
S3150000899418F06CFB46AA02F8D00D1A4900201FF005
S315000089A48DFE0124FFF72CBA0CAA144901201FF0EE
S315000089B485FE24A81FF074FC0AAA009212AB14497F
S315000089C401201FF07BFE129B9DF8282024A9BDF8E8
S315000089D4300018F0CFFB46AA02F8EC0D0949002036
S315000089E41FF06CFE0124FFF70BBA00BF1D0A03003B
S315000089F4270A0300360A0300210A0300FE090300BE
S31500008A04230A0300470A0300260A03002C0A03006C
S31500008A14C2170300340A03000CAB0DF12202C74946
S31500008A2401201FF04BFE24A81FF03AFC0DF126038B
S31500008A3412AA01930092C24909AA01201FF03EFE20
S31500008A44129A0BAC01929DF826209DF82430BDF8AD
S31500008A543010029400929DF8220024AA18F0DAFA43
S31500008A6446AA02F8F00D2346B64900201FF026FE5A
S31500008A740124FFF7C5B908238DF830300CAB0BAAD7
S31500008A840093B14924AB01201FF018FE24A99DF8D8
S31500008A942C000FF09BFE46AA02F8D00DAB4900202D
S31500008AA41FF00CFE0124FFF7ABB924AB12AAA349AD
S31500008AB401201FF003FEBDF890109DF848000FF04A
S31500008AC4FBFC0124FFF79CB924A809F0B7FB46AACE
S31500008AD402F8D00D9D4900201FF0F0FD24A81FF0D8
S31500008AE40AFC0124FFF78CB9082246AB03F8E82DEB
S31500008AF412AA0092964924AA01201FF0DFFD9DF8D0
S31500008B04481024A80FF0A2FE0124FFF779B924AA7D
S31500008B148E4901201FF0D2FD9DF890000BF08EFFC8
S31500008B240124FFF76DB90CAA884901201FF0C6FD80
S31500008B3424A81FF0D7FB24A99DF8300018F08EFB5B
S31500008B4446AA02F8D00D814900201FF0B7FD012482
S31500008B54FFF756B90BAB24AA019300927D4912AADA
S31500008B6401201FF0ABFD249A9DF82C10BDF8480097
S31500008B741DF03FFC46AA02F8E80D744900201FF0D8
S31500008B849DFD0124FFF73CB912AA704901201FF08C
S31500008B9495FD9DF8480018F0B8FB46AA42F8880DE2
S31500008BA46D4900201FF08AFD0124FFF729B9082327
S31500008BB48DF8283012AB01930AAB00930CAA24ABB0
S31500008BC4664901201FF07AFDBDF8482024A9BDF8A6
S31500008BD4300018F098FB46AA02F8EC0D5B49002019
S31500008BE41FF06CFD0124FFF70BB912AA57490120A7
S31500008BF41FF064FD9DF8480008F048FB46AA02F8F9
S31500008C04880D524900201FF059FD0124FFF7F8B8DA
S31500008C1419F0A1FD46AA42F8880D4F4900201FF01D
S31500008C244DFD0124FFF7ECB819F097FD46AA42F86A
S31500008C34880D494900201FF041FD0124FFF7E0B8E3
S31500008C4419F069FD46AA02F8880D404900201FF074
S31500008C5435FD0124FFF7D4B824AA414901201FF0A9
S31500008C642DFDBDF8900019F069FD0124FFF7C8B881
S31500008C7424AA364901201FF021FD9DF8900019F021
S31500008C845CFD0124FFF7BCB824AA334901201FF078
S31500008C9415FD249819F063FD0124FFF7B1B824AA41
S31500008CA42D4901201FF00AFD249819F059FD0124CD
S31500008CB4FFF7A6B819F029FD0124FFF7A1B824A9E6
S31500008CC412A819F03CFD12A81FF084FB24A81FF07B
S31500008CD4B2FB0124FFF794B824A81FF057FB0CAB92
S31500008CE40BAA204901201FF0E9FC9DF930209DF8CC
S31500008CF42C1024A827F0FFF946AA02F8D00D134930
S31500008D0400201FF0DBFC0124FFF77AB819F01EFDE2
S31500008D1446AA02F8880D0D4900201FF0CFFC012455
S31500008D24FFF76EB819F014FD46AA02F8880D074934
S31500008D3400201FF0C3FC0124FFF762B8500A0300A9
S31500008D44280A0300360A0300BD170300470A030076
S31500008D54460A0300390A0300FA0903003D0A030020
S31500008D64FE090300040A030024A81FF04CFB24A8F0
S31500008D7419F0E6FC0124FFF743B812A910201FF0EE
S31500008D8417FA1FF051FA24901FF00AFA0DF1950113
S31500008D948DF8940010201FF00BFA0DF1A501102098
S31500008DA41FF006FA24A912A819F0C0FC46AA02F874
S31500008DB4E80DD14900201FF081FC0124FFF720B8FB
S31500008DC419F0BFFC0124FFF71BB824AACA490120E5
S31500008DD41FF074FC9DF8900019F0AEFC0124FFF717
S31500008DE40FB824AAC54901201FF068FC249819F07D
S31500008DF4A1FC46AA02F8D00DBF4900201FF05EFC74
S31500008E040124FEF7FDBF1FF00FFA24901FF0C8F9E6
S31500008E140DF195018DF8940010201FF0C9F90DF19C
S31500008E24A50110201FF0C4F924A819F07DFC46AA58
S31500008E3402F8D00DB04900201FF040FC0124FEF7D3
S31500008E44DFBF0CAB009324AA0BABAD4901201FF086
S31500008E5435FC9DF830209DF92C10249819F068FCF7
S31500008E6446AA02F8D00DA44900201FF027FC0124CD
S31500008E74FEF7C6BF082246AB03F8F02D0BAA0092F4
S31500008E84A04912AA01201FF019FC24A910201FF0E2
S31500008E948FF924AA9DF82C1012A819F0C1F846AA35
S31500008EA402F8E80D944900201FF008FC0124FEF79F
S31500008EB4A7BF082246AB03F8EC2D934912AA01205A
S31500008EC41FF0FCFB24A910201FF072F924A912A894
S31500008ED402F0DAFE46AA02F8E80D874900201FF0E0
S31500008EE4EDFB0124FEF78CBF19F0FEF846AA02F842
S31500008EF4880D814900201FF0E1FB0124FEF780BFA5
S31500008F0415F078FB0124FEF77BBF12AA7A490120EB
S31500008F141FF0D4FB00239DF848101A46012019F0CF
S31500008F2409F846AA02F8880D734900201FF0C6FB0B
S31500008F340124FEF765BF082246AB03F8EC2D0CAA04
S31500008F440092704924AA01201FF0B8FB9DF8301046
S31500008F5424A818F0E9FF46AA02F8D00D66490020B5
S31500008F641FF0ACFB0124FEF74BBF24A813F0C0FB93
S31500008F7446AA02F8D00D604900201FF09FFBBDF8F9
S31500008F8490001FF033F90DF1920108201FF056F9F5
S31500008F940124FEF735BF0CAA574901201FF08EFBAA
S31500008FA424A99DF8300014F02FFB46AA02F8D00D30
S31500008FB4514900201FF082FBBDF890001FF016F9FE
S31500008FC49DF892001FF002F90DF1930110201FF095
S31500008FD435F929981FF01EF92A981FF01BF99DF8F8
S31500008FE4AC001FF0F3F80DF1AD0108201FF026F9CF
S31500008FF40124FEF705BF0CAA3F4901201FF05EFBC2
S3150000900424A99DF8300018F085FF46AA02F8D00D71
S31500009014394900201FF052FBBDF890001FF0E6F816
S315000090249DF892001FF0D2F80DF1930110201FF065
S3150000903405F929981FF0EEF82A981FF0EBF89DF829
S31500009044AC001FF0C3F80DF1AD0108201FF0F6F8CF
S315000090540124FEF7D5BE0CAA274901201FF02EFBDA
S3150000906424A99DF8300015F067FC46AA02F8D00D35
S31500009074214900201FF022FB24A908201FF0DEF856
S3150000908426A910201FF0DAF82A981FF0C3F8BDF8B5
S31500009094AC001FF0ABF8BDF8AE001FF0A7F8012432
S315000090A4FEF7AEBE082446AB03F8EC4D12AA1649E9
S315000090B401201FF003FB24A912A802F0EAFD46AA28
S315000090C402F8E80D0C4900201FF0F8FA204624A9FE
S315000090D41FF0B4F826A910201FF0B0F82A981FF044
S315000090E499F8BDF8AC001FF081F8BDF8AE001FF08A
S315000090F47DF80124FEF784BE470A0300FA0903003B
S31500009104410A0300460A030002170300082246AB7D
S3150000911403F8E82DBB4924AA01201FF0CFFA24A89E
S3150000912414F0EAFB46AA02F8D00DB74900201FF056
S31500009134C5FA0124FEF764BE08238DF82C300BAB68
S3150000914412AA0093B14924AB01201FF0B7FA24A94F
S31500009154BDF8480016F040F846AA02F8E80DAA49F8
S3150000916400201FF0ABFA0124FEF74ABE1FF048F8B0
S3150000917446AC24F8880D0DF1920110201FF018F862
S315000091840DF1A20110201FF013F81FF009F80DF1DC
S31500009194B3018DF8B20008201FF00AF8204613F038
S315000091A49FFB46AA02F8D00D974900201FF086FAC5
S315000091B40124FEF725BE08238DF828300BAB019356
S315000091C40AAB0DF126020093914912AB01201FF060
S315000091D475FA24A910201EF0EBFF24AB12AA9DF801
S315000091E42610002018F0A6FE46AA02F8E80D8649C5
S315000091F400201FF063FA0124FEF702BE12AA824978
S3150000920401201FF05BFA9DF8480014F04FFC46AAB3
S3150000921402F8880D7C4900201FF050FA0124FEF75D
S31500009224EFBD12A81FF096F80AAB0CAA24AC019362
S31500009234009278490DF1260201201FF03FFA0C9B9B
S315000092449DF828209DF82610009412A802F004FD2B
S3150000925446AA02F8EC0D6C4900201FF02FFA2046AE
S315000092641FF06DF80124FEF7CBBD24A910201EF0D3
S315000092749FFF24A815F0CCFF46AA02F8D00D624938
S3150000928400201FF01BFA0124FEF7BABD15F052FCAC
S3150000929446AA02F8880D5C4900201FF00FFA012443
S315000092A4FEF7AEBD24A910201EF082FF24A815F0F7
S315000092B437FC46AA02F8D00D534900201FF0FEF9E8
S315000092C40124FEF79DBD08238DF826308DF828303D
S315000092D40AAB24AC02930DF12603019400930CAA65
S315000092E412AB4D4901201FF0E9F9224612A9BDF837
S315000092F4300015F079FB46AA02F8EC0D424900202D
S315000093041FF0DCF90124FEF77BBD08238DF8283015
S315000093140AAB0CAA00933D4912AB01201FF0CEF90B
S3150000932424A910201EF044FF24AA12A9BDF8300077
S3150000933415F096FB46AA02F8EC0D334900201FF0FF
S31500009344BDF90124FEF75CBD0DF122030DF12102E6
S31500009354324901201FF0B2F924A81FF098F80CAA8C
S315000093640DF1260303920AAACDE9013212AA00924C
S315000093742B4909AA01201FF0A1F9BDF830209DF858
S31500009384243003929DF828209DF822100292129A06
S315000093949DF8210001929DF826200124009224AA1A
S315000093A41FF0F0FE46AA02F8EC0D174900201FF044
S315000093B485F9FEF725BD0CAA134901201FF07EF995
S315000093C424A99DF8300020F0D3FA46AA02F8D00D5D
S315000093D40D4900201FF072F924A81FF0C2F80124D9
S315000093E4FEF70EBD24A81FF052F824A820F018FB9F
S315000093F446AA02F8D00D044900201FF05FF90124A3
S31500009404FEF7FEBC02170300470A0300560A0300D0
S31500009414450A0300280A0300490A0300360A030022
S315000094244D0A030008230AAAD14901208DF81F30EA
S315000094341FF044F912A81FF02AF80DF11F03039335
S315000094440DF126030CAC019309AB0DF11E02029437
S315000094540093C8490DF12203012024AD1FF02EF913
S31500009464294610201EF0A4FE08AB0BAAC24901200F
S315000094741FF024F99DF82010BDF8223005910B99B0
S315000094849DF81E20CDE90351BDF8261002940191E2
S31500009494BDF824100A98009112A920F0F7FD46AAF7
S315000094A402F8F70DB54900201FF008F90124FEF76C
S315000094B4A7BC20F0E9FF0124FEF7A2BC24A81EF0F5
S315000094C4E6FF24A820F00EFF46AA02F8D00DAB4909
S315000094D400201FF0F3F80124FEF792BC0CAAA7495A
S315000094E401201FF0EBF824A99DF8300020F030FF8E
S315000094F446AA02F8D00DA14900201FF0DFF824A8DF
S315000095041FF07EF80124FEF77BBC21F079F80124D4
S31500009514FEF776BC24A81EF0BAFF24A820F0A2FE0B
S3150000952446AA02F8D00D954900201FF0C7F8012479
S31500009534FEF766BC24AA914901201FF0BFF89DF8E6
S31500009544900020F0B9FF0124FEF75ABC0CAA8B49FF
S3150000955401201FF0B3F824A81FF02BF824A99DF8C6
S31500009564300020F0BBFF46AA02F8D00D8349002044
S315000095741FF0A4F80124FEF743BC12AA7F49012078
S315000095841FF09CF89DF848000EF020FA46AA02F84F
S31500009594880D7A4900201FF091F80124FEF730BCAB
S315000095A417F03EFA46AA02F8880D744900201FF007
S315000095B485F80124FEF724BC12AA704901201FF085
S315000095C47DF89DF8480019F048FA46AA02F8880D75
S315000095D46A4900201FF072F80124FEF711BC0CAA98
S315000095E4664901201FF06AF824A99DF8300017F097
S315000095F41FF846AA02F8D00D604900201FF05EF855
S315000096049DF890001EF0E2FD9DF891001EF0DEFD2F
S31500009614BDF892001EF0EAFD9DF894001EF0D6FDFA
S315000096240DF1950108201EF009FE9DF89D001EF01F
S31500009634CDFD0124FEF7E4BB12AA504901201FF018
S315000096443DF89DF8480016F0EBFF46AA22F8880D6F
